{
  "contractName": "Main",
  "abi": [
    {
      "inputs": [],
      "payable": true,
      "stateMutability": "payable",
      "type": "constructor"
    },
    {
      "payable": true,
      "stateMutability": "payable",
      "type": "fallback"
    },
    {
      "constant": false,
      "inputs": [
        {
          "internalType": "address payable",
          "name": "recipient",
          "type": "address"
        },
        {
          "internalType": "uint256",
          "name": "pay",
          "type": "uint256"
        }
      ],
      "name": "sendAPayment",
      "outputs": [],
      "payable": true,
      "stateMutability": "payable",
      "type": "function"
    },
    {
      "constant": false,
      "inputs": [
        {
          "internalType": "uint256",
          "name": "amount",
          "type": "uint256"
        },
        {
          "internalType": "address",
          "name": "validator1",
          "type": "address"
        },
        {
          "internalType": "address",
          "name": "validator2",
          "type": "address"
        },
        {
          "internalType": "address",
          "name": "validator3",
          "type": "address"
        },
        {
          "internalType": "address",
          "name": "validator4",
          "type": "address"
        },
        {
          "internalType": "address",
          "name": "validator5",
          "type": "address"
        },
        {
          "internalType": "address",
          "name": "author",
          "type": "address"
        },
        {
          "internalType": "bool",
          "name": "consensous",
          "type": "bool"
        }
      ],
      "name": "publishBlock",
      "outputs": [
        {
          "internalType": "uint256",
          "name": "",
          "type": "uint256"
        }
      ],
      "payable": false,
      "stateMutability": "nonpayable",
      "type": "function"
    }
  ],
  "bytecode": "0x6080604052336000806101000a81548173ffffffffffffffffffffffffffffffffffffffff021916908373ffffffffffffffffffffffffffffffffffffffff1602179055506103aa806100536000396000f3fe6080604052600436106100295760003560e01c8063af3e24f21461002b578063e2952e9d14610068575b005b34801561003757600080fd5b50610052600480360361004d91908101906101d5565b610084565b60405161005f9190610296565b60405180910390f35b610082600480360361007d9190810190610199565b610095565b005b600043905098975050505050505050565b6000809054906101000a900473ffffffffffffffffffffffffffffffffffffffff1673ffffffffffffffffffffffffffffffffffffffff163373ffffffffffffffffffffffffffffffffffffffff16146100ee57600080fd5b8047116100fa57600080fd5b8173ffffffffffffffffffffffffffffffffffffffff166108fc829081150290604051600060405180830381858888f19350505050158015610140573d6000803e3d6000fd5b505050565b6000813590506101548161030b565b92915050565b60008135905061016981610322565b92915050565b60008135905061017e81610339565b92915050565b60008135905061019381610350565b92915050565b600080604083850312156101ac57600080fd5b60006101ba8582860161015a565b92505060206101cb85828601610184565b9150509250929050565b600080600080600080600080610100898b0312156101f257600080fd5b60006102008b828c01610184565b98505060206102118b828c01610145565b97505060406102228b828c01610145565b96505060606102338b828c01610145565b95505060806102448b828c01610145565b94505060a06102558b828c01610145565b93505060c06102668b828c01610145565b92505060e06102778b828c0161016f565b9150509295985092959890939650565b61029081610301565b82525050565b60006020820190506102ab6000830184610287565b92915050565b60006102bc826102e1565b9050919050565b60006102ce826102e1565b9050919050565b60008115159050919050565b600073ffffffffffffffffffffffffffffffffffffffff82169050919050565b6000819050919050565b610314816102b1565b811461031f57600080fd5b50565b61032b816102c3565b811461033657600080fd5b50565b610342816102d5565b811461034d57600080fd5b50565b61035981610301565b811461036457600080fd5b5056fea365627a7a7231582005d9539b893d2b3e22df3f9acb64d61163d0b3fcfb22928fe7318333afd0e6e46c6578706572696d656e74616cf564736f6c63430005100040",
  "source": "pragma solidity >=0.4.21 <0.7.0;\r\npragma experimental ABIEncoderV2;\r\n\r\ncontract Main {\r\n    \r\n    address initialCreator; \r\n    \r\n    constructor() payable public {\r\n        initialCreator = msg.sender;\r\n    }\r\n    \r\n    function() external payable {\r\n\r\n    }\r\n  \r\n    function sendAPayment(address payable  recipient, uint256 pay) public payable {\r\n        require (msg.sender == initialCreator);\r\n        require (address(this).balance > pay);\r\n        recipient.transfer(pay);\r\n    }\r\n    \r\n    function publishBlock(uint256 amount, address validator1, address validator2, address validator3, address validator4, address validator5, address author, bool consensous) public returns (uint256) {\r\n        return block.number;\r\n    }\r\n  \r\n}",
  "sourcePath": "C:\\Users\\marko\\Documents\\GitHub\\Hack-The-North\\contracts\\Main.sol",
  "compiler": {
    "name": "solc",
    "version": "0.5.16+commit.9c3226ce.Emscripten.clang"
  },
  "schemaVersion": "3.0.23",
  "updatedAt": "2021-01-17T12:12:14.334Z",
  "devdoc": {
    "methods": {}
  },
  "userdoc": {
    "methods": {}
  }
}